:020000040800F2
:1000000000280020E1010008310200083102000848
:10001000310200083102000831020008000000002F
:100020000000000000000000000000003102000895
:10003000310200080000000031020008310200080F
:1000400031020008310200083102000831020008C4
:1000500031020008310200083102000831020008B4
:1000600031020008310200083102000831020008A4
:100070003102000831020008310200083102000894
:100080003102000831020008310200083102000884
:100090003102000831020008310200083102000874
:1000A0003102000831020008310200083102000864
:1000B0003102000831020008310200083102000854
:1000C0003102000831020008310200083102000844
:1000D0003102000831020008310200083102000834
:1000E000310200083102000800000000310200085F
:1000F0003102000831020008310200083102000814
:100100003102000831020008310200083102000803
:1001100031020008310200083102000831020008F3
:1001200031020008310200083102000831020008E3
:1001300010B5054C237833B9044B13B10448AFF321
:1001400000800123237010BD00000020000000008B
:100150007C02000808B5034B1BB103490348AFF309
:10016000008008BD00000000040000207C020008A0
:1001700080B483B000AF174B1B68164A43F00403EA
:100180001360154B1B68144A43F400131360134BA0
:100190001B68124A43F40053136000237B6002E0A3
:1001A0007B6801337B607B6841F287329342F7DDE5
:1001B0000A4B1B68094A23F40053136000233B6079
:1001C00002E03B6801333B603B6841F28732934277
:1001D000F7DDDCE718100240040801400C0801407C
:1001E0000D488546AFF300800C480D490D4A0023A9
:1001F00002E0D458C4500433C4188C42F9D30A4ADC
:100200000A4C002301E013600432A242FBD300F049
:1002100011F8FFF7ADFFFEE70028002000000020E6
:10022000000000209C020008000000201C000020AC
:10023000FEE7000070B500250C4E0D4CA41BA41069
:10024000A54209D100F01AF800250A4E0A4CA41B59
:10025000A410A54205D170BD56F825309847013548
:10026000EEE756F8253098470135F2E7940200088A
:10027000940200089402000898020008F8B500BF34
:10028000F8BC08BC9E467047F8B500BFF8BC08BC77
:040290009E467047CF
:040294005501000808
:040298003101000828
:04000005080001E10D
:00000001FF
